{
  "_format": "hh-sol-artifact-1",
  "contractName": "SetMsg",
  "sourceName": "contracts/Facets/setMessageFacet.sol",
  "abi": [
    {
      "inputs": [
        {
          "internalType": "string",
          "name": "_msg",
          "type": "string"
        }
      ],
      "name": "setMessage",
      "outputs": [],
      "stateMutability": "nonpayable",
      "type": "function"
    }
  ],
  "bytecode": "0x6080604052348015600f57600080fd5b506104be8061001f6000396000f3fe608060405234801561001057600080fd5b506004361061002b5760003560e01c8063368b877214610030575b600080fd5b61004a6004803603810190610045919061011b565b61004c565b005b610056828261005a565b5050565b600061006461007f565b905082828260000191826100799291906103b8565b50505050565b6000807f8af8771f63fb3e4c9f56d1aac3a083ca1a993ec4e7a51449bbc0b8e8e0ecf15890508091505090565b600080fd5b600080fd5b600080fd5b600080fd5b600080fd5b60008083601f8401126100db576100da6100b6565b5b8235905067ffffffffffffffff8111156100f8576100f76100bb565b5b602083019150836001820283011115610114576101136100c0565b5b9250929050565b60008060208385031215610132576101316100ac565b5b600083013567ffffffffffffffff8111156101505761014f6100b1565b5b61015c858286016100c5565b92509250509250929050565b600082905092915050565b7f4e487b7100000000000000000000000000000000000000000000000000000000600052604160045260246000fd5b7f4e487b7100000000000000000000000000000000000000000000000000000000600052602260045260246000fd5b600060028204905060018216806101e957607f821691505b6020821081036101fc576101fb6101a2565b5b50919050565b60008190508160005260206000209050919050565b60006020601f8301049050919050565b600082821b905092915050565b6000600883026102647fffffffffffffffffffffffffffffffffffffffffffffffffffffffffffffffff82610227565b61026e8683610227565b95508019841693508086168417925050509392505050565b6000819050919050565b6000819050919050565b60006102b56102b06102ab84610286565b610290565b610286565b9050919050565b6000819050919050565b6102cf8361029a565b6102e36102db826102bc565b848454610234565b825550505050565b600090565b6102f86102eb565b6103038184846102c6565b505050565b5b818110156103275761031c6000826102f0565b600181019050610309565b5050565b601f82111561036c5761033d81610202565b61034684610217565b81016020851015610355578190505b61036961036185610217565b830182610308565b50505b505050565b600082821c905092915050565b600061038f60001984600802610371565b1980831691505092915050565b60006103a8838361037e565b9150826002028217905092915050565b6103c28383610168565b67ffffffffffffffff8111156103db576103da610173565b5b6103e582546101d1565b6103f082828561032b565b6000601f83116001811461041f576000841561040d578287013590505b610417858261039c565b86555061047f565b601f19841661042d86610202565b60005b8281101561045557848901358255600182019150602085019450602081019050610430565b86831015610472578489013561046e601f89168261037e565b8355505b6001600288020188555050505b5050505050505056fea2646970667358221220e3d05ac3a2eb412028dc60a0907fb1efac0d4ab220de35ad7cdc78229c713a9264736f6c634300081b0033",
  "linkReferences": {},
  "deployedLinkReferences": {}
}