{
  "contracts/Facets/setMessageFacet.sol": {
    "SetMsg": {
      "abi": [
        {
          "inputs": [
            {
              "internalType": "string",
              "name": "_msg",
              "type": "string"
            }
          ],
          "name": "setMessage",
          "outputs": [],
          "stateMutability": "nonpayable",
          "type": "function"
        }
      ],
      "evm": {
        "bytecode": {
          "linkReferences": {},
          "object": "6080604052348015600f57600080fd5b506104be8061001f6000396000f3fe608060405234801561001057600080fd5b506004361061002b5760003560e01c8063368b877214610030575b600080fd5b61004a6004803603810190610045919061011b565b61004c565b005b610056828261005a565b5050565b600061006461007f565b905082828260000191826100799291906103b8565b50505050565b6000807f8af8771f63fb3e4c9f56d1aac3a083ca1a993ec4e7a51449bbc0b8e8e0ecf15890508091505090565b600080fd5b600080fd5b600080fd5b600080fd5b600080fd5b60008083601f8401126100db576100da6100b6565b5b8235905067ffffffffffffffff8111156100f8576100f76100bb565b5b602083019150836001820283011115610114576101136100c0565b5b9250929050565b60008060208385031215610132576101316100ac565b5b600083013567ffffffffffffffff8111156101505761014f6100b1565b5b61015c858286016100c5565b92509250509250929050565b600082905092915050565b7f4e487b7100000000000000000000000000000000000000000000000000000000600052604160045260246000fd5b7f4e487b7100000000000000000000000000000000000000000000000000000000600052602260045260246000fd5b600060028204905060018216806101e957607f821691505b6020821081036101fc576101fb6101a2565b5b50919050565b60008190508160005260206000209050919050565b60006020601f8301049050919050565b600082821b905092915050565b6000600883026102647fffffffffffffffffffffffffffffffffffffffffffffffffffffffffffffffff82610227565b61026e8683610227565b95508019841693508086168417925050509392505050565b6000819050919050565b6000819050919050565b60006102b56102b06102ab84610286565b610290565b610286565b9050919050565b6000819050919050565b6102cf8361029a565b6102e36102db826102bc565b848454610234565b825550505050565b600090565b6102f86102eb565b6103038184846102c6565b505050565b5b818110156103275761031c6000826102f0565b600181019050610309565b5050565b601f82111561036c5761033d81610202565b61034684610217565b81016020851015610355578190505b61036961036185610217565b830182610308565b50505b505050565b600082821c905092915050565b600061038f60001984600802610371565b1980831691505092915050565b60006103a8838361037e565b9150826002028217905092915050565b6103c28383610168565b67ffffffffffffffff8111156103db576103da610173565b5b6103e582546101d1565b6103f082828561032b565b6000601f83116001811461041f576000841561040d578287013590505b610417858261039c565b86555061047f565b601f19841661042d86610202565b60005b8281101561045557848901358255600182019150602085019450602081019050610430565b86831015610472578489013561046e601f89168261037e565b8355505b6001600288020188555050505b5050505050505056fea2646970667358221220e3d05ac3a2eb412028dc60a0907fb1efac0d4ab220de35ad7cdc78229c713a9264736f6c634300081b0033",
          "opcodes": "PUSH1 0x80 PUSH1 0x40 MSTORE CALLVALUE DUP1 ISZERO PUSH1 0xF JUMPI PUSH1 0x0 DUP1 REVERT JUMPDEST POP PUSH2 0x4BE DUP1 PUSH2 0x1F PUSH1 0x0 CODECOPY PUSH1 0x0 RETURN INVALID PUSH1 0x80 PUSH1 0x40 MSTORE CALLVALUE DUP1 ISZERO PUSH2 0x10 JUMPI PUSH1 0x0 DUP1 REVERT JUMPDEST POP PUSH1 0x4 CALLDATASIZE LT PUSH2 0x2B JUMPI PUSH1 0x0 CALLDATALOAD PUSH1 0xE0 SHR DUP1 PUSH4 0x368B8772 EQ PUSH2 0x30 JUMPI JUMPDEST PUSH1 0x0 DUP1 REVERT JUMPDEST PUSH2 0x4A PUSH1 0x4 DUP1 CALLDATASIZE SUB DUP2 ADD SWAP1 PUSH2 0x45 SWAP2 SWAP1 PUSH2 0x11B JUMP JUMPDEST PUSH2 0x4C JUMP JUMPDEST STOP JUMPDEST PUSH2 0x56 DUP3 DUP3 PUSH2 0x5A JUMP JUMPDEST POP POP JUMP JUMPDEST PUSH1 0x0 PUSH2 0x64 PUSH2 0x7F JUMP JUMPDEST SWAP1 POP DUP3 DUP3 DUP3 PUSH1 0x0 ADD SWAP2 DUP3 PUSH2 0x79 SWAP3 SWAP2 SWAP1 PUSH2 0x3B8 JUMP JUMPDEST POP POP POP POP JUMP JUMPDEST PUSH1 0x0 DUP1 PUSH32 0x8AF8771F63FB3E4C9F56D1AAC3A083CA1A993EC4E7A51449BBC0B8E8E0ECF158 SWAP1 POP DUP1 SWAP2 POP POP SWAP1 JUMP JUMPDEST PUSH1 0x0 DUP1 REVERT JUMPDEST PUSH1 0x0 DUP1 REVERT JUMPDEST PUSH1 0x0 DUP1 REVERT JUMPDEST PUSH1 0x0 DUP1 REVERT JUMPDEST PUSH1 0x0 DUP1 REVERT JUMPDEST PUSH1 0x0 DUP1 DUP4 PUSH1 0x1F DUP5 ADD SLT PUSH2 0xDB JUMPI PUSH2 0xDA PUSH2 0xB6 JUMP JUMPDEST JUMPDEST DUP3 CALLDATALOAD SWAP1 POP PUSH8 0xFFFFFFFFFFFFFFFF DUP2 GT ISZERO PUSH2 0xF8 JUMPI PUSH2 0xF7 PUSH2 0xBB JUMP JUMPDEST JUMPDEST PUSH1 0x20 DUP4 ADD SWAP2 POP DUP4 PUSH1 0x1 DUP3 MUL DUP4 ADD GT ISZERO PUSH2 0x114 JUMPI PUSH2 0x113 PUSH2 0xC0 JUMP JUMPDEST JUMPDEST SWAP3 POP SWAP3 SWAP1 POP JUMP JUMPDEST PUSH1 0x0 DUP1 PUSH1 0x20 DUP4 DUP6 SUB SLT ISZERO PUSH2 0x132 JUMPI PUSH2 0x131 PUSH2 0xAC JUMP JUMPDEST JUMPDEST PUSH1 0x0 DUP4 ADD CALLDATALOAD PUSH8 0xFFFFFFFFFFFFFFFF DUP2 GT ISZERO PUSH2 0x150 JUMPI PUSH2 0x14F PUSH2 0xB1 JUMP JUMPDEST JUMPDEST PUSH2 0x15C DUP6 DUP3 DUP7 ADD PUSH2 0xC5 JUMP JUMPDEST SWAP3 POP SWAP3 POP POP SWAP3 POP SWAP3 SWAP1 POP JUMP JUMPDEST PUSH1 0x0 DUP3 SWAP1 POP SWAP3 SWAP2 POP POP JUMP JUMPDEST PUSH32 0x4E487B7100000000000000000000000000000000000000000000000000000000 PUSH1 0x0 MSTORE PUSH1 0x41 PUSH1 0x4 MSTORE PUSH1 0x24 PUSH1 0x0 REVERT JUMPDEST PUSH32 0x4E487B7100000000000000000000000000000000000000000000000000000000 PUSH1 0x0 MSTORE PUSH1 0x22 PUSH1 0x4 MSTORE PUSH1 0x24 PUSH1 0x0 REVERT JUMPDEST PUSH1 0x0 PUSH1 0x2 DUP3 DIV SWAP1 POP PUSH1 0x1 DUP3 AND DUP1 PUSH2 0x1E9 JUMPI PUSH1 0x7F DUP3 AND SWAP2 POP JUMPDEST PUSH1 0x20 DUP3 LT DUP2 SUB PUSH2 0x1FC JUMPI PUSH2 0x1FB PUSH2 0x1A2 JUMP JUMPDEST JUMPDEST POP SWAP2 SWAP1 POP JUMP JUMPDEST PUSH1 0x0 DUP2 SWAP1 POP DUP2 PUSH1 0x0 MSTORE PUSH1 0x20 PUSH1 0x0 KECCAK256 SWAP1 POP SWAP2 SWAP1 POP JUMP JUMPDEST PUSH1 0x0 PUSH1 0x20 PUSH1 0x1F DUP4 ADD DIV SWAP1 POP SWAP2 SWAP1 POP JUMP JUMPDEST PUSH1 0x0 DUP3 DUP3 SHL SWAP1 POP SWAP3 SWAP2 POP POP JUMP JUMPDEST PUSH1 0x0 PUSH1 0x8 DUP4 MUL PUSH2 0x264 PUSH32 0xFFFFFFFFFFFFFFFFFFFFFFFFFFFFFFFFFFFFFFFFFFFFFFFFFFFFFFFFFFFFFFFF DUP3 PUSH2 0x227 JUMP JUMPDEST PUSH2 0x26E DUP7 DUP4 PUSH2 0x227 JUMP JUMPDEST SWAP6 POP DUP1 NOT DUP5 AND SWAP4 POP DUP1 DUP7 AND DUP5 OR SWAP3 POP POP POP SWAP4 SWAP3 POP POP POP JUMP JUMPDEST PUSH1 0x0 DUP2 SWAP1 POP SWAP2 SWAP1 POP JUMP JUMPDEST PUSH1 0x0 DUP2 SWAP1 POP SWAP2 SWAP1 POP JUMP JUMPDEST PUSH1 0x0 PUSH2 0x2B5 PUSH2 0x2B0 PUSH2 0x2AB DUP5 PUSH2 0x286 JUMP JUMPDEST PUSH2 0x290 JUMP JUMPDEST PUSH2 0x286 JUMP JUMPDEST SWAP1 POP SWAP2 SWAP1 POP JUMP JUMPDEST PUSH1 0x0 DUP2 SWAP1 POP SWAP2 SWAP1 POP JUMP JUMPDEST PUSH2 0x2CF DUP4 PUSH2 0x29A JUMP JUMPDEST PUSH2 0x2E3 PUSH2 0x2DB DUP3 PUSH2 0x2BC JUMP JUMPDEST DUP5 DUP5 SLOAD PUSH2 0x234 JUMP JUMPDEST DUP3 SSTORE POP POP POP POP JUMP JUMPDEST PUSH1 0x0 SWAP1 JUMP JUMPDEST PUSH2 0x2F8 PUSH2 0x2EB JUMP JUMPDEST PUSH2 0x303 DUP2 DUP5 DUP5 PUSH2 0x2C6 JUMP JUMPDEST POP POP POP JUMP JUMPDEST JUMPDEST DUP2 DUP2 LT ISZERO PUSH2 0x327 JUMPI PUSH2 0x31C PUSH1 0x0 DUP3 PUSH2 0x2F0 JUMP JUMPDEST PUSH1 0x1 DUP2 ADD SWAP1 POP PUSH2 0x309 JUMP JUMPDEST POP POP JUMP JUMPDEST PUSH1 0x1F DUP3 GT ISZERO PUSH2 0x36C JUMPI PUSH2 0x33D DUP2 PUSH2 0x202 JUMP JUMPDEST PUSH2 0x346 DUP5 PUSH2 0x217 JUMP JUMPDEST DUP2 ADD PUSH1 0x20 DUP6 LT ISZERO PUSH2 0x355 JUMPI DUP2 SWAP1 POP JUMPDEST PUSH2 0x369 PUSH2 0x361 DUP6 PUSH2 0x217 JUMP JUMPDEST DUP4 ADD DUP3 PUSH2 0x308 JUMP JUMPDEST POP POP JUMPDEST POP POP POP JUMP JUMPDEST PUSH1 0x0 DUP3 DUP3 SHR SWAP1 POP SWAP3 SWAP2 POP POP JUMP JUMPDEST PUSH1 0x0 PUSH2 0x38F PUSH1 0x0 NOT DUP5 PUSH1 0x8 MUL PUSH2 0x371 JUMP JUMPDEST NOT DUP1 DUP4 AND SWAP2 POP POP SWAP3 SWAP2 POP POP JUMP JUMPDEST PUSH1 0x0 PUSH2 0x3A8 DUP4 DUP4 PUSH2 0x37E JUMP JUMPDEST SWAP2 POP DUP3 PUSH1 0x2 MUL DUP3 OR SWAP1 POP SWAP3 SWAP2 POP POP JUMP JUMPDEST PUSH2 0x3C2 DUP4 DUP4 PUSH2 0x168 JUMP JUMPDEST PUSH8 0xFFFFFFFFFFFFFFFF DUP2 GT ISZERO PUSH2 0x3DB JUMPI PUSH2 0x3DA PUSH2 0x173 JUMP JUMPDEST JUMPDEST PUSH2 0x3E5 DUP3 SLOAD PUSH2 0x1D1 JUMP JUMPDEST PUSH2 0x3F0 DUP3 DUP3 DUP6 PUSH2 0x32B JUMP JUMPDEST PUSH1 0x0 PUSH1 0x1F DUP4 GT PUSH1 0x1 DUP2 EQ PUSH2 0x41F JUMPI PUSH1 0x0 DUP5 ISZERO PUSH2 0x40D JUMPI DUP3 DUP8 ADD CALLDATALOAD SWAP1 POP JUMPDEST PUSH2 0x417 DUP6 DUP3 PUSH2 0x39C JUMP JUMPDEST DUP7 SSTORE POP PUSH2 0x47F JUMP JUMPDEST PUSH1 0x1F NOT DUP5 AND PUSH2 0x42D DUP7 PUSH2 0x202 JUMP JUMPDEST PUSH1 0x0 JUMPDEST DUP3 DUP2 LT ISZERO PUSH2 0x455 JUMPI DUP5 DUP10 ADD CALLDATALOAD DUP3 SSTORE PUSH1 0x1 DUP3 ADD SWAP2 POP PUSH1 0x20 DUP6 ADD SWAP5 POP PUSH1 0x20 DUP2 ADD SWAP1 POP PUSH2 0x430 JUMP JUMPDEST DUP7 DUP4 LT ISZERO PUSH2 0x472 JUMPI DUP5 DUP10 ADD CALLDATALOAD PUSH2 0x46E PUSH1 0x1F DUP10 AND DUP3 PUSH2 0x37E JUMP JUMPDEST DUP4 SSTORE POP JUMPDEST PUSH1 0x1 PUSH1 0x2 DUP9 MUL ADD DUP9 SSTORE POP POP POP JUMPDEST POP POP POP POP POP POP POP JUMP INVALID LOG2 PUSH5 0x6970667358 0x22 SLT KECCAK256 0xE3 0xD0 GAS 0xC3 LOG2 0xEB COINBASE KECCAK256 0x28 0xDC PUSH1 0xA0 SWAP1 PUSH32 0xB1EFAC0D4AB220DE35AD7CDC78229C713A9264736F6C634300081B0033000000 "
        },
        "methodIdentifiers": {
          "setMessage(string)": "368b8772"
        }
      }
    }
  }
}