{
  "contracts/Facets/CountDigit.sol": {
    "Count": {
      "abi": [
        {
          "inputs": [],
          "name": "getMsgCount",
          "outputs": [
            {
              "internalType": "uint256",
              "name": "",
              "type": "uint256"
            }
          ],
          "stateMutability": "view",
          "type": "function"
        }
      ],
      "evm": {
        "bytecode": {
          "linkReferences": {},
          "object": "6080604052348015600f57600080fd5b5060f88061001e6000396000f3fe6080604052348015600f57600080fd5b506004361060285760003560e01c806366e4136414602d575b600080fd5b60336047565b604051603e919060a9565b60405180910390f35b6000604f6054565b905090565b6000605c6065565b60010154905090565b6000807f8af8771f63fb3e4c9f56d1aac3a083ca1a993ec4e7a51449bbc0b8e8e0ecf15890508091505090565b6000819050919050565b60a3816092565b82525050565b600060208201905060bc6000830184609c565b9291505056fea2646970667358221220ad629d407114881254b775926692adbc29f55af1abfb268041cdab7dc4b351bc64736f6c634300081b0033",
          "opcodes": "PUSH1 0x80 PUSH1 0x40 MSTORE CALLVALUE DUP1 ISZERO PUSH1 0xF JUMPI PUSH1 0x0 DUP1 REVERT JUMPDEST POP PUSH1 0xF8 DUP1 PUSH2 0x1E PUSH1 0x0 CODECOPY PUSH1 0x0 RETURN INVALID PUSH1 0x80 PUSH1 0x40 MSTORE CALLVALUE DUP1 ISZERO PUSH1 0xF JUMPI PUSH1 0x0 DUP1 REVERT JUMPDEST POP PUSH1 0x4 CALLDATASIZE LT PUSH1 0x28 JUMPI PUSH1 0x0 CALLDATALOAD PUSH1 0xE0 SHR DUP1 PUSH4 0x66E41364 EQ PUSH1 0x2D JUMPI JUMPDEST PUSH1 0x0 DUP1 REVERT JUMPDEST PUSH1 0x33 PUSH1 0x47 JUMP JUMPDEST PUSH1 0x40 MLOAD PUSH1 0x3E SWAP2 SWAP1 PUSH1 0xA9 JUMP JUMPDEST PUSH1 0x40 MLOAD DUP1 SWAP2 SUB SWAP1 RETURN JUMPDEST PUSH1 0x0 PUSH1 0x4F PUSH1 0x54 JUMP JUMPDEST SWAP1 POP SWAP1 JUMP JUMPDEST PUSH1 0x0 PUSH1 0x5C PUSH1 0x65 JUMP JUMPDEST PUSH1 0x1 ADD SLOAD SWAP1 POP SWAP1 JUMP JUMPDEST PUSH1 0x0 DUP1 PUSH32 0x8AF8771F63FB3E4C9F56D1AAC3A083CA1A993EC4E7A51449BBC0B8E8E0ECF158 SWAP1 POP DUP1 SWAP2 POP POP SWAP1 JUMP JUMPDEST PUSH1 0x0 DUP2 SWAP1 POP SWAP2 SWAP1 POP JUMP JUMPDEST PUSH1 0xA3 DUP2 PUSH1 0x92 JUMP JUMPDEST DUP3 MSTORE POP POP JUMP JUMPDEST PUSH1 0x0 PUSH1 0x20 DUP3 ADD SWAP1 POP PUSH1 0xBC PUSH1 0x0 DUP4 ADD DUP5 PUSH1 0x9C JUMP JUMPDEST SWAP3 SWAP2 POP POP JUMP INVALID LOG2 PUSH5 0x6970667358 0x22 SLT KECCAK256 0xAD PUSH3 0x9D4071 EQ DUP9 SLT SLOAD 0xB7 PUSH22 0x926692ADBC29F55AF1ABFB268041CDAB7DC4B351BC64 PUSH20 0x6F6C634300081B00330000000000000000000000 "
        },
        "methodIdentifiers": {
          "getMsgCount()": "66e41364"
        }
      }
    }
  }
}