{
  "_format": "hh-sol-artifact-1",
  "contractName": "Dex",
  "sourceName": "contracts/Dex.sol",
  "abi": [
    {
      "inputs": [
        {
          "internalType": "address",
          "name": "_daiAddress",
          "type": "address"
        },
        {
          "internalType": "address",
          "name": "_usdcAddress",
          "type": "address"
        }
      ],
      "stateMutability": "nonpayable",
      "type": "constructor"
    },
    {
      "inputs": [],
      "name": "buyDai",
      "outputs": [],
      "stateMutability": "nonpayable",
      "type": "function"
    },
    {
      "inputs": [
        {
          "internalType": "address",
          "name": "",
          "type": "address"
        }
      ],
      "name": "daiBalance",
      "outputs": [
        {
          "internalType": "uint256",
          "name": "",
          "type": "uint256"
        }
      ],
      "stateMutability": "view",
      "type": "function"
    },
    {
      "inputs": [
        {
          "internalType": "uint256",
          "name": "_amount",
          "type": "uint256"
        }
      ],
      "name": "depositDai",
      "outputs": [],
      "stateMutability": "nonpayable",
      "type": "function"
    },
    {
      "inputs": [
        {
          "internalType": "uint256",
          "name": "_amount",
          "type": "uint256"
        }
      ],
      "name": "depositUsdc",
      "outputs": [],
      "stateMutability": "nonpayable",
      "type": "function"
    },
    {
      "inputs": [
        {
          "internalType": "address",
          "name": "_tokenAddr",
          "type": "address"
        }
      ],
      "name": "getBalance",
      "outputs": [
        {
          "internalType": "uint256",
          "name": "",
          "type": "uint256"
        }
      ],
      "stateMutability": "view",
      "type": "function"
    },
    {
      "inputs": [],
      "name": "owner",
      "outputs": [
        {
          "internalType": "address payable",
          "name": "",
          "type": "address"
        }
      ],
      "stateMutability": "view",
      "type": "function"
    },
    {
      "inputs": [],
      "name": "sellDai",
      "outputs": [],
      "stateMutability": "nonpayable",
      "type": "function"
    },
    {
      "inputs": [
        {
          "internalType": "address",
          "name": "",
          "type": "address"
        }
      ],
      "name": "usdcBalance",
      "outputs": [
        {
          "internalType": "uint256",
          "name": "",
          "type": "uint256"
        }
      ],
      "stateMutability": "view",
      "type": "function"
    },
    {
      "inputs": [
        {
          "internalType": "address",
          "name": "_tokenAddress",
          "type": "address"
        }
      ],
      "name": "withdraw",
      "outputs": [],
      "stateMutability": "nonpayable",
      "type": "function"
    },
    {
      "stateMutability": "payable",
      "type": "receive"
    }
  ],
  "bytecode": "0x6080604052605a600260146101000a81548160ff021916908360ff1602179055506064600260156101000a81548160ff021916908360ff16021790555034801561004857600080fd5b506040516114b93803806114b9833981810160405281019061006a9190610196565b336000806101000a81548173ffffffffffffffffffffffffffffffffffffffff021916908373ffffffffffffffffffffffffffffffffffffffff16021790555081600160006101000a81548173ffffffffffffffffffffffffffffffffffffffff021916908373ffffffffffffffffffffffffffffffffffffffff16021790555080600260006101000a81548173ffffffffffffffffffffffffffffffffffffffff021916908373ffffffffffffffffffffffffffffffffffffffff16021790555050506101d6565b600080fd5b600073ffffffffffffffffffffffffffffffffffffffff82169050919050565b600061016382610138565b9050919050565b61017381610158565b811461017e57600080fd5b50565b6000815190506101908161016a565b92915050565b600080604083850312156101ad576101ac610133565b5b60006101bb85828601610181565b92505060206101cc85828601610181565b9150509250929050565b6112d4806101e56000396000f3fe60806040526004361061008a5760003560e01c806351cff8d91161005957806351cff8d91461013c5780638da5cb5b14610165578063d7f7098f14610190578063f121e5e7146101cd578063f8b2cb4f146101e457610091565b806310684667146100965780632357928e146100d357806335842f74146100fc57806335eba35e1461012557610091565b3661009157005b600080fd5b3480156100a257600080fd5b506100bd60048036038101906100b89190610cf6565b610221565b6040516100ca9190610d3c565b60405180910390f35b3480156100df57600080fd5b506100fa60048036038101906100f59190610d83565b610239565b005b34801561010857600080fd5b50610123600480360381019061011e9190610d83565b61041b565b005b34801561013157600080fd5b5061013a6105fd565b005b34801561014857600080fd5b50610163600480360381019061015e9190610cf6565b6107f7565b005b34801561017157600080fd5b5061017a6109cf565b6040516101879190610dd1565b60405180910390f35b34801561019c57600080fd5b506101b760048036038101906101b29190610cf6565b6109f3565b6040516101c49190610d3c565b60405180910390f35b3480156101d957600080fd5b506101e2610a0b565b005b3480156101f057600080fd5b5061020b60048036038101906102069190610cf6565b610c10565b6040516102189190610d3c565b60405180910390f35b60046020528060005260406000206000915090505481565b80600460003373ffffffffffffffffffffffffffffffffffffffff1673ffffffffffffffffffffffffffffffffffffffff16815260200190815260200160002060008282546102889190610e1b565b925050819055506000600260009054906101000a900473ffffffffffffffffffffffffffffffffffffffff1673ffffffffffffffffffffffffffffffffffffffff1663dd62ed3e33306040518363ffffffff1660e01b81526004016102ee929190610e5e565b602060405180830381865afa15801561030b573d6000803e3d6000fd5b505050506040513d601f19601f8201168201806040525081019061032f9190610e9c565b905081811015610374576040517f08c379a000000000000000000000000000000000000000000000000000000000815260040161036b90610f26565b60405180910390fd5b600260009054906101000a900473ffffffffffffffffffffffffffffffffffffffff1673ffffffffffffffffffffffffffffffffffffffff166323b872dd3330856040518463ffffffff1660e01b81526004016103d393929190610f46565b6020604051808303816000875af11580156103f2573d6000803e3d6000fd5b505050506040513d601f19601f820116820180604052508101906104169190610fb5565b505050565b80600360003373ffffffffffffffffffffffffffffffffffffffff1673ffffffffffffffffffffffffffffffffffffffff168152602001908152602001600020600082825461046a9190610e1b565b925050819055506000600160009054906101000a900473ffffffffffffffffffffffffffffffffffffffff1673ffffffffffffffffffffffffffffffffffffffff1663dd62ed3e33306040518363ffffffff1660e01b81526004016104d0929190610e5e565b602060405180830381865afa1580156104ed573d6000803e3d6000fd5b505050506040513d601f19601f820116820180604052508101906105119190610e9c565b905081811015610556576040517f08c379a000000000000000000000000000000000000000000000000000000000815260040161054d90610f26565b60405180910390fd5b600160009054906101000a900473ffffffffffffffffffffffffffffffffffffffff1673ffffffffffffffffffffffffffffffffffffffff166323b872dd3330856040518463ffffffff1660e01b81526004016105b593929190610f46565b6020604051808303816000875af11580156105d4573d6000803e3d6000fd5b505050506040513d601f19601f820116820180604052508101906105f89190610fb5565b505050565b6000600360003373ffffffffffffffffffffffffffffffffffffffff1673ffffffffffffffffffffffffffffffffffffffff16815260200190815260200160002054905060008111610684576040517f08c379a000000000000000000000000000000000000000000000000000000000815260040161067b9061102e565b60405180910390fd5b6000655af3107a4000600260159054906101000a900460ff1660ff16836106ab919061104e565b6106b591906110bf565b90506000600360003373ffffffffffffffffffffffffffffffffffffffff1673ffffffffffffffffffffffffffffffffffffffff1681526020019081526020016000208190555080600460003373ffffffffffffffffffffffffffffffffffffffff1673ffffffffffffffffffffffffffffffffffffffff168152602001908152602001600020600082825461074b9190610e1b565b92505081905550600260009054906101000a900473ffffffffffffffffffffffffffffffffffffffff1673ffffffffffffffffffffffffffffffffffffffff1663a9059cbb33836040518363ffffffff1660e01b81526004016107af9291906110f0565b6020604051808303816000875af11580156107ce573d6000803e3d6000fd5b505050506040513d601f19601f820116820180604052508101906107f29190610fb5565b505050565b60008054906101000a900473ffffffffffffffffffffffffffffffffffffffff1673ffffffffffffffffffffffffffffffffffffffff163373ffffffffffffffffffffffffffffffffffffffff1614610885576040517f08c379a000000000000000000000000000000000000000000000000000000000815260040161087c9061118b565b60405180910390fd5b600081905060008173ffffffffffffffffffffffffffffffffffffffff166370a08231306040518263ffffffff1660e01b81526004016108c591906111ab565b602060405180830381865afa1580156108e2573d6000803e3d6000fd5b505050506040513d601f19601f820116820180604052508101906109069190610e9c565b90506000811161094b576040517f08c379a000000000000000000000000000000000000000000000000000000000815260040161094290611212565b60405180910390fd5b8173ffffffffffffffffffffffffffffffffffffffff1663a9059cbb33836040518363ffffffff1660e01b81526004016109869291906110f0565b6020604051808303816000875af11580156109a5573d6000803e3d6000fd5b505050506040513d601f19601f820116820180604052508101906109c99190610fb5565b50505050565b60008054906101000a900473ffffffffffffffffffffffffffffffffffffffff1681565b60036020528060005260406000206000915090505481565b6000600460003373ffffffffffffffffffffffffffffffffffffffff1673ffffffffffffffffffffffffffffffffffffffff16815260200190815260200160002054905060008111610a92576040517f08c379a0000000000000000000000000000000000000000000000000000000008152600401610a899061127e565b60405180910390fd5b6000600260149054906101000a900460ff1660ff1664e8d4a51000606484610aba919061104e565b610ac4919061104e565b610ace91906110bf565b90506000600460003373ffffffffffffffffffffffffffffffffffffffff1673ffffffffffffffffffffffffffffffffffffffff1681526020019081526020016000208190555080600360003373ffffffffffffffffffffffffffffffffffffffff1673ffffffffffffffffffffffffffffffffffffffff1681526020019081526020016000206000828254610b649190610e1b565b92505081905550600160009054906101000a900473ffffffffffffffffffffffffffffffffffffffff1673ffffffffffffffffffffffffffffffffffffffff1663a9059cbb33836040518363ffffffff1660e01b8152600401610bc89291906110f0565b6020604051808303816000875af1158015610be7573d6000803e3d6000fd5b505050506040513d601f19601f82011682018060405250810190610c0b9190610fb5565b505050565b60008173ffffffffffffffffffffffffffffffffffffffff166370a08231306040518263ffffffff1660e01b8152600401610c4b91906111ab565b602060405180830381865afa158015610c68573d6000803e3d6000fd5b505050506040513d601f19601f82011682018060405250810190610c8c9190610e9c565b9050919050565b600080fd5b600073ffffffffffffffffffffffffffffffffffffffff82169050919050565b6000610cc382610c98565b9050919050565b610cd381610cb8565b8114610cde57600080fd5b50565b600081359050610cf081610cca565b92915050565b600060208284031215610d0c57610d0b610c93565b5b6000610d1a84828501610ce1565b91505092915050565b6000819050919050565b610d3681610d23565b82525050565b6000602082019050610d516000830184610d2d565b92915050565b610d6081610d23565b8114610d6b57600080fd5b50565b600081359050610d7d81610d57565b92915050565b600060208284031215610d9957610d98610c93565b5b6000610da784828501610d6e565b91505092915050565b6000610dbb82610c98565b9050919050565b610dcb81610db0565b82525050565b6000602082019050610de66000830184610dc2565b92915050565b7f4e487b7100000000000000000000000000000000000000000000000000000000600052601160045260246000fd5b6000610e2682610d23565b9150610e3183610d23565b9250828201905080821115610e4957610e48610dec565b5b92915050565b610e5881610cb8565b82525050565b6000604082019050610e736000830185610e4f565b610e806020830184610e4f565b9392505050565b600081519050610e9681610d57565b92915050565b600060208284031215610eb257610eb1610c93565b5b6000610ec084828501610e87565b91505092915050565b600082825260208201905092915050565b7f436865636b2074686520616c6c6f77616e636500000000000000000000000000600082015250565b6000610f10601383610ec9565b9150610f1b82610eda565b602082019050919050565b60006020820190508181036000830152610f3f81610f03565b9050919050565b6000606082019050610f5b6000830186610e4f565b610f686020830185610e4f565b610f756040830184610d2d565b949350505050565b60008115159050919050565b610f9281610f7d565b8114610f9d57600080fd5b50565b600081519050610faf81610f89565b92915050565b600060208284031215610fcb57610fca610c93565b5b6000610fd984828501610fa0565b91505092915050565b7f4e6f2064616920746f2065786368616e67650000000000000000000000000000600082015250565b6000611018601283610ec9565b915061102382610fe2565b602082019050919050565b600060208201905081810360008301526110478161100b565b9050919050565b600061105982610d23565b915061106483610d23565b925082820261107281610d23565b9150828204841483151761108957611088610dec565b5b5092915050565b7f4e487b7100000000000000000000000000000000000000000000000000000000600052601260045260246000fd5b60006110ca82610d23565b91506110d583610d23565b9250826110e5576110e4611090565b5b828204905092915050565b60006040820190506111056000830185610e4f565b6111126020830184610d2d565b9392505050565b7f4f6e6c792074686520636f6e7472616374206f776e65722063616e2063616c6c60008201527f20746869732066756e6374696f6e000000000000000000000000000000000000602082015250565b6000611175602e83610ec9565b915061118082611119565b604082019050919050565b600060208201905081810360008301526111a481611168565b9050919050565b60006020820190506111c06000830184610e4f565b92915050565b7f4e6f20746f6b656e7320746f2077697468647261770000000000000000000000600082015250565b60006111fc601583610ec9565b9150611207826111c6565b602082019050919050565b6000602082019050818103600083015261122b816111ef565b9050919050565b7f4e6f20757364632062616c616e636520746f2073776170000000000000000000600082015250565b6000611268601783610ec9565b915061127382611232565b602082019050919050565b600060208201905081810360008301526112978161125b565b905091905056fea2646970667358221220d53b38f36a4ee2562d160960d23b9adda1ae49e46f1e2298d56373a2865427fe64736f6c634300081b0033",
  "linkReferences": {},
  "deployedLinkReferences": {}
}