{
  "_format": "hh-sol-artifact-1",
  "contractName": "Count",
  "sourceName": "contracts/Facets/CountDigit.sol",
  "abi": [
    {
      "inputs": [],
      "name": "getMsgCount",
      "outputs": [
        {
          "internalType": "uint256",
          "name": "",
          "type": "uint256"
        }
      ],
      "stateMutability": "view",
      "type": "function"
    }
  ],
  "bytecode": "0x6080604052348015600f57600080fd5b5060f88061001e6000396000f3fe6080604052348015600f57600080fd5b506004361060285760003560e01c806366e4136414602d575b600080fd5b60336047565b604051603e919060a9565b60405180910390f35b6000604f6054565b905090565b6000605c6065565b60010154905090565b6000807f8af8771f63fb3e4c9f56d1aac3a083ca1a993ec4e7a51449bbc0b8e8e0ecf15890508091505090565b6000819050919050565b60a3816092565b82525050565b600060208201905060bc6000830184609c565b9291505056fea2646970667358221220ad629d407114881254b775926692adbc29f55af1abfb268041cdab7dc4b351bc64736f6c634300081b0033",
  "linkReferences": {},
  "deployedLinkReferences": {}
}