{
  "_format": "hh-sol-artifact-1",
  "contractName": "GetMessage",
  "sourceName": "contracts/Facets/getMessageFacet.sol",
  "abi": [
    {
      "inputs": [],
      "name": "getMessage",
      "outputs": [
        {
          "internalType": "string",
          "name": "",
          "type": "string"
        }
      ],
      "stateMutability": "view",
      "type": "function"
    }
  ],
  "bytecode": "0x6080604052348015600f57600080fd5b5061026d8061001f6000396000f3fe608060405234801561001057600080fd5b506004361061002b5760003560e01c8063ce6d41de14610030575b600080fd5b61003861004e565b60405161004591906101b5565b60405180910390f35b606061005861005d565b905090565b60606100676100f8565b600001805461007590610206565b80601f01602080910402602001604051908101604052809291908181526020018280546100a190610206565b80156100ee5780601f106100c3576101008083540402835291602001916100ee565b820191906000526020600020905b8154815290600101906020018083116100d157829003601f168201915b5050505050905090565b6000807f8af8771f63fb3e4c9f56d1aac3a083ca1a993ec4e7a51449bbc0b8e8e0ecf15890508091505090565b600081519050919050565b600082825260208201905092915050565b60005b8381101561015f578082015181840152602081019050610144565b60008484015250505050565b6000601f19601f8301169050919050565b600061018782610125565b6101918185610130565b93506101a1818560208601610141565b6101aa8161016b565b840191505092915050565b600060208201905081810360008301526101cf818461017c565b905092915050565b7f4e487b7100000000000000000000000000000000000000000000000000000000600052602260045260246000fd5b6000600282049050600182168061021e57607f821691505b602082108103610231576102306101d7565b5b5091905056fea2646970667358221220e45a45db9fed034f0684382aa3842244cac8dca3512fbd1833ff11db5b9d936464736f6c634300081b0033",
  "linkReferences": {},
  "deployedLinkReferences": {}
}