{
  "_format": "hh-sol-artifact-1",
  "contractName": "DemoV3",
  "sourceName": "contracts/LearnProxy3.sol",
  "abi": [
    {
      "inputs": [],
      "name": "getName",
      "outputs": [
        {
          "internalType": "string",
          "name": "",
          "type": "string"
        }
      ],
      "stateMutability": "view",
      "type": "function"
    },
    {
      "inputs": [],
      "name": "name",
      "outputs": [
        {
          "internalType": "string",
          "name": "",
          "type": "string"
        }
      ],
      "stateMutability": "view",
      "type": "function"
    },
    {
      "inputs": [
        {
          "internalType": "string",
          "name": "_name",
          "type": "string"
        }
      ],
      "name": "setName",
      "outputs": [],
      "stateMutability": "nonpayable",
      "type": "function"
    },
    {
      "inputs": [],
      "name": "version",
      "outputs": [
        {
          "internalType": "string",
          "name": "",
          "type": "string"
        }
      ],
      "stateMutability": "pure",
      "type": "function"
    }
  ],
  "bytecode": "0x6080604052348015600f57600080fd5b506107998061001f6000396000f3fe608060405234801561001057600080fd5b506004361061004c5760003560e01c806306fdde031461005157806317d7de7c1461006f57806354fd4d501461008d578063c47f0027146100ab575b600080fd5b6100596100c7565b60405161006691906102c7565b60405180910390f35b610077610155565b60405161008491906102c7565b60405180910390f35b6100956101e7565b6040516100a291906102c7565b60405180910390f35b6100c560048036038101906100c09190610432565b610224565b005b600080546100d4906104aa565b80601f0160208091040260200160405190810160405280929190818152602001828054610100906104aa565b801561014d5780601f106101225761010080835404028352916020019161014d565b820191906000526020600020905b81548152906001019060200180831161013057829003601f168201915b505050505081565b606060008054610164906104aa565b80601f0160208091040260200160405190810160405280929190818152602001828054610190906104aa565b80156101dd5780601f106101b2576101008083540402835291602001916101dd565b820191906000526020600020905b8154815290600101906020018083116101c057829003601f168201915b5050505050905090565b60606040518060400160405280600581526020017f322e302e30000000000000000000000000000000000000000000000000000000815250905090565b80600090816102339190610691565b5050565b600081519050919050565b600082825260208201905092915050565b60005b83811015610271578082015181840152602081019050610256565b60008484015250505050565b6000601f19601f8301169050919050565b600061029982610237565b6102a38185610242565b93506102b3818560208601610253565b6102bc8161027d565b840191505092915050565b600060208201905081810360008301526102e1818461028e565b905092915050565b6000604051905090565b600080fd5b600080fd5b600080fd5b600080fd5b7f4e487b7100000000000000000000000000000000000000000000000000000000600052604160045260246000fd5b61033f8261027d565b810181811067ffffffffffffffff8211171561035e5761035d610307565b5b80604052505050565b60006103716102e9565b905061037d8282610336565b919050565b600067ffffffffffffffff82111561039d5761039c610307565b5b6103a68261027d565b9050602081019050919050565b82818337600083830152505050565b60006103d56103d084610382565b610367565b9050828152602081018484840111156103f1576103f0610302565b5b6103fc8482856103b3565b509392505050565b600082601f830112610419576104186102fd565b5b81356104298482602086016103c2565b91505092915050565b600060208284031215610448576104476102f3565b5b600082013567ffffffffffffffff811115610466576104656102f8565b5b61047284828501610404565b91505092915050565b7f4e487b7100000000000000000000000000000000000000000000000000000000600052602260045260246000fd5b600060028204905060018216806104c257607f821691505b6020821081036104d5576104d461047b565b5b50919050565b60008190508160005260206000209050919050565b60006020601f8301049050919050565b600082821b905092915050565b60006008830261053d7fffffffffffffffffffffffffffffffffffffffffffffffffffffffffffffffff82610500565b6105478683610500565b95508019841693508086168417925050509392505050565b6000819050919050565b6000819050919050565b600061058e6105896105848461055f565b610569565b61055f565b9050919050565b6000819050919050565b6105a883610573565b6105bc6105b482610595565b84845461050d565b825550505050565b600090565b6105d16105c4565b6105dc81848461059f565b505050565b5b81811015610600576105f56000826105c9565b6001810190506105e2565b5050565b601f82111561064557610616816104db565b61061f846104f0565b8101602085101561062e578190505b61064261063a856104f0565b8301826105e1565b50505b505050565b600082821c905092915050565b60006106686000198460080261064a565b1980831691505092915050565b60006106818383610657565b9150826002028217905092915050565b61069a82610237565b67ffffffffffffffff8111156106b3576106b2610307565b5b6106bd82546104aa565b6106c8828285610604565b600060209050601f8311600181146106fb57600084156106e9578287015190505b6106f38582610675565b86555061075b565b601f198416610709866104db565b60005b828110156107315784890151825560018201915060208501945060208101905061070c565b8683101561074e578489015161074a601f891682610657565b8355505b6001600288020188555050505b50505050505056fea2646970667358221220ca95253c2147dbc65f63a711c1e7955c2f308d62eb820e7a37a05d269cd7bdaf64736f6c634300081b0033",
  "linkReferences": {},
  "deployedLinkReferences": {}
}